:020000040000FA
:10000000082E00106D01000075010000770100004E
:10001000790100007B0100007D010000000000006C
:10002000000000000000000000000000E9000000E7
:1000300081010000000000001D0100005F59000068
:100040008701000087010000870100008701000090
:10005000870100008526000087010000870100005D
:100060008701000087010000870100008701000070
:100070008701000087010000870100008701000060
:100080008701000087010000870100008701000050
:100090008701000087010000870100008701000040
:1000A0008701000087010000870100008701000030
:1000B000870100008504000087010000870100001F
:1000C000870100008701000087010000DFF80CD0E5
:1000D00005F0CEFC004800474B0E0000082E001033
:1000E00040BA7047C0BA70471A4B19680868B0E840
:1000F000F00F80F309884FF0000080F311884EF074
:100100000D0E70470000000003480068006880F38F
:10011000088862B600DF00BF08ED00E0EFF3098059
:100120000C4B1A6820E9F00F106008B54FF028005A
:1001300080F3118805F0AEF94FF0000080F31188CC
:10014000BDE8084019680868B0E8F00F80F3098836
:10015000704700BF780100104FF0280080F311882D
:1001600070474FF0000080F31188704706488047C1
:1001700006480047FEE7FEE7FEE7FEE7FEE7FEE78C
:10018000FEE7FEE7FEE7FEE7BD030000CD0000004E
:1001900010B5354A0323202801D3A0F1200002D254
:1001A00002F5D47201E002F5D672146803FA00F386
:1001B00024EA03041460136801FA00F143EA01031E
:1001C000136010BD2849202802D2D1F8A81102E0FE
:1001D000D1F8AC112038C14001F003007047234929
:1001E00000B50A68FFF7EEFF30B1012807D00228FA
:1001F00005D0032803D101E0042000E00820B2FB71
:10020000F0F000BD184A1A4B012907D0002904D18B
:1002100052F8C41F834319401160704752F8C41F3D
:1002200018400143F8E710490020C031086030BF92
:1002300070471049042008600B490020C031086055
:1002400030BF70470B490420086007490120C031C6
:10025000086030BF70470749042008600249032046
:10026000C031086030BF704700C00F400000001070
:10027000DEF7EFEF10ED00E070B504460025400713
:1002800004D004F00700C0F10800044405F037F87A
:10029000104A506818B9104820F0070050601068E4
:1002A00041F6F8730119994204D2814202D9536888
:1002B00011601D1804F0B7FF284670BD704705494E
:1002C000002008607047034841F6F8710068081A7A
:1002D00070470000B80100100C0C001010B5044667
:1002E00004E00B7800F8013B03B1491C521EF8D220
:1002F000204610BD7047000000000000FFFFFFFF18
:1003000070B5584DD5F88800574C6FEA10608007DB
:10031000D5F80C0100F003000CD028B101283ED024
:10032000022842D003282DD1D5F804014F49C0B28C
:10033000401C40E028B101280ED0022823D0032819
:1003400020D155F8880FC0F307422868521CC0F32B
:100350000E00401C464909E055F8880FC0F30742DB
:100360002868521CC0F30E004249401CA0FB01014A
:10037000002305F009FBEA6F0023D2B2521C05F0FE
:1003800003FB206070BD55F8880FC0F30742286852
:10039000521CC0F30E00401C4FF47A41E6E7D5F83A
:1003A00004013549C0B2401C05E0D5F804014FF402
:1003B000FA41C0B2401CB1FBF0F0E2E770B5294849
:1003C0002021C0F8A011D0F8A0114906FBD50325C3
:1003D0008030C0F884500024C0F82841C0F82C4177
:1003E0000121C0F88C10254A4260AA22C260552320
:1003F000C3600160C260C360A0F18000D0F8886073
:100400007601FBD540F8805FC260C360A0F1800038
:10041000D0F8886016F0407FFAD000F1A0002326C3
:100420004660C260C3600160C260C360A0F1A0000A
:10043000D0F8A8104905FBD540F8A05FC260C360A2
:10044000A038D0F8A81011F4407FFAD00C49C0F8B9
:10045000C410C0F8C841016821F4704141F48041E2
:10046000016070BD00C00F400000001000093D0099
:1004700000127A0000366E01001BB7006300050011
:10048000DE87280410B5FE4801F000F8FD48C16B76
:10049000491CC16310BDFB4C00254FF0020B657277
:1004A0004FF0030A4FF00109607A30B101280BD0F8
:1004B00002287DD0032806D105E100235A1E1946E3
:1004C000206A04F0A0FC0DE105F039FAE078032879
:1004D00002D384F809A0E570EB488168C068081A67
:1004E0000D2806D30E22E949E94802F046F984F8BE
:1004F00009B0012000F069FE80016ED442F2107054
:1005000001F002FF002869D0012001F086FFDF49D9
:10051000E048203901F00CF9DC482023343800F1A0
:1005200014020370C3730574D7680A21B7FBF1F690
:1005300006F1300C01FB167680F801C0303686706B
:100540004FF02F0880F803809769B7FBF1F606F1AA
:10055000300C01FB167680F804C03036467180F806
:100560000680D6696427B6FBF7FC07FB1C67B7FB60
:10057000F1F73037C771B6FBF1F701FB176630367C
:10058000067243729668B6FBF1F303F1300701FB84
:10059000136387723033C3723A2303735368B3FB18
:1005A000F1F201FB123102F130064673303100E006
:1005B00043E0817301F063FF0121002001F06CFF33
:1005C000A07805281FD2DFE800F0030A0E131800F8
:1005D00084F80290AB48F23012E016E02AE084F88A
:1005E00002B0AD480CE084F802A0AB48113007E03F
:1005F0000420A070A848223002E0A570A64833303D
:1006000001F03DFF16E0A57014E084F805906572D6
:10061000002004F0D8FE06460021606B04F0DFFEE7
:100620003146A06B04F0DBFE00231A461946606ACF
:1006300004F012FB05F08BF954E0944900260A22DD
:1006400001F10E0001F0A3FE00B101268F490A223C
:1006500001F1180001F09BFE00B101268B490A222E
:1006600001F1220001F093FE00B1012687490A2220
:1006700001F12C0001F08BFEA0B9012E12D0E07820
:10068000401CE07084F80990012001F0C6FE824809
:10069000203801F0F4FEC82004F06DFE012001F0C6
:1006A000BCFE1FE0657284F807A0002325721A467D
:1006B0001946606904F0D0FA00231A461946A06969
:1006C00004F0CAFA0EE0754EF06F40F08060F067FB
:1006D0004FF4967004F04FFEB06F40F08060B0674A
:1006E00084F80990282004F046FEDDE6654C0125DB
:1006F000AE1E25724FF49677002332461946606984
:1007000004F081FB207A28B10128F5D1642004F09F
:1007100032FEF1E7012001F080FE5F48443001F035
:10072000AEFE384604F027FE2572002365721A4695
:100730001946206A04F090FADEE7524E00274FF087
:10074000FF39F7714FF0010800234A461946B06996
:1007500004F059FBF07920B3012826D002287DD07F
:100760000328F1D112224EA1514803F070FAB07261
:10077000002874D0012001F050FE4748463801F0AF
:100780007EFE0121002001F087FE43482D3801F054
:1007900076FEC82004F0EFFD012001F03EFEF77167
:1007A000D2E7142004F0E7FDCEE7012241A144483E
:1007B00003F04DFAB07250B3012001F02EFE36481E
:1007C000463801F05CFE0121002001F065FE324850
:1007D000383801F054FE86F80580002004F0F3FD5F
:1007E00004460021F06A04F0FAFD2146B06B04F0E3
:1007F000F6FD00231A461946706A04F02DFAF771C7
:10080000C82004F0B8FD012001F007FE9CE71D4B55
:100810001E4940330E312A48F26803F0B1FA284CE1
:100820002046A168491C03F06FFC164BA4F5147117
:1008300040332046F26803F0A3FAA1682046491C21
:1008400003F062FC0F4BA4F2462140332046F268CD
:1008500003F096FAA1682046491C01E050E073E0DD
:1008600003F052FC074BA4F50F7140332046F268A9
:1008700003F086FA204603F03EFCC82022E0000088
:1008800000000B4008000010FC080010F4010010EC
:1008900000C00040004002400B01001000C00920D1
:1008A000526567697374726F2E747874000000006B
:1008B0008006001041636365736F2E7478740000C6
:1008C0005C04001004F057FD012001F0A6FDF9487A
:1008D00001F0D5FD0121002001F0DEFDF5481930C1
:1008E00001F0CDFD86F80980002004F06CFD014682
:1008F000706B04F074FD00231A461946306A7CE7D9
:100900000122AFF26401EC4803F0A1F9B072F06883
:10091000EA4DEB4C30640FE0E64BEA49723BE648A7
:1009200003F02EFAB07296F84020E649284601F00E
:10093000EFFE20780128FDD0F268306C9042EBD0B9
:10094000DD4803F0D8FB2AE7DE49DF48203900F014
:10095000EFFED948C16803F0D7FBB072D6495F20DB
:1009600003F086FFD74C0A25203CD349E068B0FB52
:10097000F5F03030C0B203F07BFFE068B0FBF5F17A
:1009800005FB11003030CC4903F072FFCA492F201B
:1009900003F06EFFA069C849B0FBF5F03030C0B27B
:1009A00003F066FFA069B0FBF5F105FB11003030E4
:1009B000C14903F05DFFC049202003F059FFA06842
:1009C000BD49B0FBF5F03030C0B203F051FFA06874
:1009D000B0FBF5F105FB11003030B74903F048FFDB
:1009E000B5493A2003F044FF6068B349B0FBF5F025
:1009F0003030C0B203F03CFF6068B0FBF5F105FB9E
:100A000011003030AC4903F033FFAB49202003F034
:100A10002FFFA949492003F02BFFA749442003F0E9
:100A200027FFA5493A2003F023FFA24B04F121013F
:100A30006E3BA148326903F048FA81E700209D4CE3
:100A4000451EB23C0346A07101462A46E06904F007
:100A5000DAF9A07910B1012809D106E000232A466D
:100A60001946E06904F0CFF901E001F0D8FD052056
:100A700004F081FCEDE78F4E08B50025B23E914CA5
:100A80007571203C4FF00109707920B101287DD0AB
:100A900002287CD1A2E187486A3801F0F0FCB06BF3
:100AA00004F091FC0146B06A04F099FCC82004F0FF
:100AB00062FC0021084601F0EFFC7E485B3801F043
:100AC000DEFC0121002001F0E7FC7A484A3801F001
:100AD000D6FC0F2001F0A1FC0121084601F0DCFC4E
:100AE00000231A461946F06904F0B6F8C84686F89D
:100AF000069033E101F0B4FD00287CD001F0B8FD90
:100B00003030C0B230713B280CD071780F2973D2CD
:100B1000DFE801F0F3ABB1F3B7BDF3C3CAF3DCE236
:100B2000F3E8EE00012001F078FC62483A3801F069
:100B3000A6FC0121084601F0AFFCE0681F2801D99E
:100B40001F20E060A0690C2801D90C20A061A068DA
:100B5000172800D9A56060683B2800D96560E06867
:100B60000A27B0FBF7F03030C0B201F06FFCE0684C
:100B7000B0FBF7F107FB1100303001F067FC2F20CC
:100B800001F064FCA069B0FBF7F001E0EDE040E1AA
:100B90003030C0B201F05AFCA069B0FBF7F107FB9E
:100BA0001100303001F052FC2F2001F04FFCE069C1
:100BB0006421B0FBF1F201FB1200B0FBF7F0303022
:100BC00001F044FCE069B0FBF7F107FB11003030A5
:100BD00001F03CFC202001F039FCA068B0FBF7F0EC
:100BE0003030C0B201F032FCA068B0FBF7F107FB77
:100BF0001100303001E037E07FE001F027FC3A20BF
:100C000001F024FC6068B0FBF7F03030C0B201F0B6
:100C10001DFC6068B0FBF7F107FB1100303001F0FC
:100C200015FC3F2001F012FC02E00A2004F0A3FBB7
:100C300001F016FD0028F8D001F01AFD3030C0B2E6
:100C400030713B2810D10C2001F0E7FB1D491E4FED
:100C50002039384600F04AFD0121384600F03FFCBB
:100C600086F805808DF8005075E0A0F1300101EBA9
:100C70008101490003E0E168A0F130021144E16024
:100C80003BE0A0F1300101EB8101490003E0A169E3
:100C9000A0F130021144A1612FE000EB80014FF47C
:100CA000BE6202EB410103E0E169A0F130021144B0
:100CB000E16122E0BA0000108006001000C0004090
:100CC0006F010010F401001000400240A0F130015B
:100CD00001EB8101490003E0A168A0F13002114459
:100CE000A1600AE0A0F1300101EB8101490003E0BD
:100CF0006168A0F130021144616001F0A7FB7078D7
:100D0000401CC0B27070032803D00021062816D002
:100D100000E0012100221143092812D000221143D2
:100D20000C2810D00022114305D0401CC0B27070B6
:100D3000012101F0B1FB70780F2806D00BE00122F1
:100D4000E9E70122EBE70122EDE7404686F8018062
:100D5000012101F0A1FB0A2004F00DFB9DF8000029
:100D600000287FF4C7AEB57153E04F468DF8009070
:100D700001F04CFD4FF002082BE0012000F025FAB5
:100D800080014FF001000ED401F047FBC14801F093
:100D900076FB8DF80050C049002002F04BFFF77140
:100DA00086F8058012E001F038FBBA480E3001F0F9
:100DB00066FB0121002001F06FFBB6481E3001F0F8
:100DC0005EFB012000F001FA8001FAD4322004F029
:100DD000D2FA9DF800000028CFD11AE0002004F0DC
:100DE000F2FA0146F06A04F0FAFA0021B06B04F05E
:100DF000F6FA0021B06A04F0F2FA00231A46194606
:100E0000B06903F029FF00235A1E1946706A03F0E7
:100E1000FAFF142004F0AFFA36E69E4C9F4D863C54
:100E2000207820B1E86F40F00070E86703E0A86F19
:100E300040F00070A867207828B100202070322090
:100E400004F099FAECE70120F8E78CB003220021C6
:100E5000012003F081FE8F4D863D686120B10023A3
:100E60001A46194603F0F8FE03220021012003F080
:100E700073FEA86120B100231A46194603F0ECFE68
:100E800003220021012003F067FEE86120B1002366
:100E90001A46194603F0E0FE03220021012003F068
:100EA0005BFE286220B100231A46194603F0D4FEE7
:100EB00003220021012003F04FFE686220B10023CD
:100EC0001A46194603F0C8FE012600248DF8126068
:100ED0008DF8134002208DF811008DF814408DF824
:100EE000104004A800F07AFA03208DF8110004A83D
:100EF00000F074FA09A800F06FFEDFF8A4B109A9A8
:100F00005F46584600F0F9FD0BA800F0D2FE0BA991
:100F1000384600F0AEFE634A0021384600F078FF04
:100F2000614A0121384600F073FF604A03213846C8
:100F300000F06EFF0121384600F0C3FD01220021C0
:100F4000384600F05EFE5A4804705A488460C46017
:100F50000460446001F0E8FA574F384600F0A2FA06
:100F6000384600F0B3FA0021384600F0A9FC46F2FA
:100F7000A810CDE90604514F0894384600F042FA13
:100F800006A9384600F05DFA0121384600F06AFAF9
:100F90001D2000F072F8052000F06FF83F48016E48
:100FA00041F0C0610166C16F41F0C061C16701F0ED
:100FB00079FA012001F031FA00230094019402949F
:100FC000C8223FA1AFF2AD10039403F0EFFF074634
:100FD000A86B0096CDE901040023C8223AA1AFF224
:100FE0006950039403F0E2FF8246A86A0023CDE92A
:100FF00000400294C82236A1AFF2BF50039403F020
:10100000D5FF8146E86A0023CDE900400294C8225A
:1010100031A1AFF6D900039403F0C8FF8046286BD6
:101020000096CDE901040023C8222CA1AFF643109D
:10103000039403F0BBFF0646686B0023CDE9004034
:101040000294C82227A1AFF6B130039403F0AEFF9B
:1010500007EA0A0707EA090707EA080737400742CD
:1010600001D004F0E0FA20A001F009FA0C2221A13D
:10107000584601F04DFBFEE7704700F01F020121CA
:10108000914040094FF0E02202EB8000C0F80011CF
:10109000704700008E0000102C02001000C00920D4
:1010A00000C0004089260000B32600000F27000082
:1010B0006F010010FC0800100040024000000B40CF
:1010C0004C45443100000000534554454F0000009A
:1010D0005445434C41444F00534400005055455241
:1010E00054410000494400004372617368656F2EEB
:1010F0002E2E00004372617368656F2E2E2E0A0D2E
:101100000000000001460020052905D2DFE801F0BB
:101110000305080B0E008B4870478A482030704743
:101120008848403070478748603070478548803035
:10113000704701460020052905D2DFE801F00305CC
:10114000080B0E007F4870477E48203070477D486E
:10115000403070477B48603070477A488030704735
:1011600001460020052905D2DFE801F00305080B40
:101170000E00744870477348203070477148403003
:1011800070477048603070476E488030704770B567
:1011900015460C46FFF7B6FF002805D001680DB1D3
:1011A000214300E0A143016070BD10B50C46FFF77C
:1011B000A9FF002800D0846110BD10B50C46FFF7D0
:1011C000A1FF002800D0C46110BD10B5FFF79AFF41
:1011D000002800D0406910BDD9E7E6E7EDE7F4E765
:1011E00070B515460C46FFF78DFF002805D0016944
:1011F0000DB1214300E0A143016170BD70B51E46F1
:1012000014460D46FFF795FF00280BD036B115B1F7
:101210004188214305E00188214306E01DB1418852
:10122000A143418070BD0188A143018070BD70B5AC
:101230001E4614460D46FFF77CFF00280BD036B142
:1012400015B1418A214305E0018A214306E01DB121
:10125000418AA143418270BD018AA143018270BDD0
:1012600070B514460D46FFF764FF002801D00DB19C
:10127000448370BD048370BD70B514460D46FFF7FE
:1012800058FF002801D00DB1C48370BD848370BDA8
:1012900010B50C46FFF74DFF002801D00CB1C08AF5
:1012A00010BD808A10BD70B51E4615460C46FFF76E
:1012B00057FF00280AD026B1032C07D8015D294327
:1012C00003E0032C02D8015DA943015570BD70B540
:1012D0001E4615460C46FFF743FF00280CD02EB1E2
:1012E000032C09D82044017C294304E0032C03D8B3
:1012F0002044017CA943017470BD70B515460C46AD
:10130000FFF72EFF002803D0032C01D820440576D8
:1013100070BD70B515460C46FFF722FF002803D0BC
:10132000032C01D82044057770BD10B50C46FFF79B
:1013300017FF20B1032C02D82044007D10BD0020EF
:1013400010BD000000C0092030B540002C4B102912
:1013500001D31039401C4900032553F820408D402B
:10136000AC438A40144343F8204030BD244901284F
:1013700006D0002803D1886A20F0080088627047F0
:10138000886A40F00800F9E71D4B30B54000403353
:10139000102901D31039401C4900032553F820407F
:1013A0008D40AC438A40144343F8204030BD10B513
:1013B000134C012368348B4054F82010012A03D0C9
:1013C000994344F8201010BD1943FAE7012800D1D1
:1013D000052201B90A220A48C267704710B50446BF
:1013E000827841780078FFF7AFFFE2786178207863
:1013F000FFF7CAFF227961782078BDE81040D6E770
:1014000000C0024010B5044601210804FEF7FAFEB0
:101410004FF0FF302060002060600C212172E060FE
:1014200010BD10B5044600214FF48030FEF7EAFEEF
:101430004FF0FF302060002060600C212172E060DE
:1014400010BD0A6802604A6842608968C1607047DE
:101450000129017A03D021F008010172704741F09F
:101460000801FAE70129017A03D021F00201017293
:10147000704741F00201FAE70129017A03D021F017
:1014800004010172704741F00401FAE7017AC907CB
:1014900006D0027A012142F001020272084670472A
:1014A0000020704710B5044601214802FEF7AAFE4D
:1014B0000020207020722073FF212174206410BD51
:1014C000002101724FF40070FEF79CBE017A41F0DA
:1014D00002010172017A01F01101017270470129C4
:1014E000017A03D001F012010172704741F001014D
:1014F000FAE7012A07D0082915D2DFE801F02D31DB
:1015000035393D41454908290DD2DFE801F004088D
:101510000D1115191D21017B41F0010102E0017B34
:1015200041F0020101737047017B41F00401F9E7CA
:10153000017B41F01001F5E7017B41F00801F1E783
:10154000017B41F02001EDE7017B41F04001E9E73B
:10155000017B41F08001E5E7017B01F0FE01E1E75D
:10156000017B01F0FD01DDE7017B01F0FB01D9E723
:10157000017B01F0EF01D5E7017B01F0F701D1E735
:10158000017B01F0DF01CDE7017B01F0BF01C9E77D
:10159000017B01F07F01C5E7012A07D0082915D298
:1015A000DFE801F02D3135393D41454908290DD29B
:1015B000DFE801F004080D1115191D21017C01F06F
:1015C000FE0102E0017C01F0FD0101747047017C25
:1015D00001F0FB01F9E7017C01F0EF01F5E7017C87
:1015E00001F0F701F1E7017C01F0DF01EDE7017C9B
:1015F00001F0BF01E9E7017C01F07F01E5E7017C33
:1016000041F00101E1E7017C41F00201DDE7017CED
:1016100041F00401D9E7017C41F01001D5E7017CDC
:1016200041F00801D1E7017C41F02001CDE7017CC8
:1016300041F04001C9E7017C41F08001C5E730B5C8
:1016400002F03F0502F01F04082907D2DFE801F08D
:1016500004070A0D1215191E80F8205030BD80F8BD
:10166000245030BD80F8284030BD02F0070180F8DA
:10167000301030BD80F82C4030BDC2F308018186A7
:1016800030BD02F00F0180F8381030BDC2F30B01FD
:10169000818730BD082927D2DFE801F004070C0F4D
:1016A00014191D2290F8200001E090F8240000F0A9
:1016B0003F00704790F8280006E090F8300000F0F6
:1016C0000700704790F82C0000F01F007047808ED4
:1016D000C0F30800704790F8380000F00F00704722
:1016E000808FC0F30B007047002070470A7B2030CA
:1016F00002F01F0202730A7C02F0070202748A8A57
:10170000C2F3080282820A7A02F01F0202720A7988
:1017100002F03F0202710A7802F03F0202700A7E74
:1017200002F00F020276898BC1F30B0181837047AF
:101730002030027B02F01F02CA60027C02F0070226
:101740000A61828AC2F308024A61027A02F01F0229
:101750008A60027902F03F024A60027802F03F029A
:101760000A60027E02F00F028A61808BC0F30B00D8
:10177000C861704730B502F03F0502F01F04082928
:1017800007D2DFE801F004070A0D12151A1F80F8CE
:10179000605030BD80F8645030BD80F8684030BD86
:1017A00002F0070180F8701030BD80F86C4030BD49
:1017B000C2F30801A0F8741030BD02F00F0180F8E8
:1017C000781030BDC2F30B01A0F87C1030BD0829A1
:1017D00029D2DFE801F004070C0F14191E2390F83A
:1017E000600001E090F8640000F03F00704790F85E
:1017F000680006E090F8700000F00700704790F86D
:101800006C0000F01F007047B0F87400C0F30800CF
:10181000704790F8780000F00F007047B0F87C0037
:10182000C0F30B007047002070470A7B603002F065
:101830001F0202730A7C02F0070202748A8AC2F352
:10184000080282820A7A02F01F0202720A7902F00A
:101850003F0202710A7802F03F0202700A7E02F033
:101860000F020276898BC1F30B01818370476030D0
:10187000027B02F01F02CA60027C02F007020A61CA
:10188000828AC2F308024A61027A02F01F028A6069
:10189000027902F03F024A60027802F03F020A60D9
:1018A000027E02F00F028A61808BC0F30B00C861D8
:1018B00070470078084000D00120704701707047E1
:1018C0000129017A03D041F010010172704701F043
:1018D0000301FAE7491EC1F31003012A03D00021D6
:1018E0000B43036470474FF40031F9E7443040F88C
:1018F00021207047443050F821007047FE4988424B
:1019000001D100207047FD49884201D10120704774
:10191000FB49884201D102207047032070472DE91E
:10192000FC5F0D4600218A460F460E460091F249A3
:10193000DFF8D09304464FF0010B884201D1062016
:101940000DE0EE498C4201D1082008E0EC498C42C0
:1019500001D1302003E0EC498C4202D13220FEF765
:101960003EFC000901224FF6FD7C0190019B002105
:1019700002FB03FE5318BEFBF3F3B3FBF5F005FBCC
:101980001038B8EB550F00D9401CA0F10308E04512
:101990000ED2B3FBF0F3AB4201D8EE1A00E05E1BAF
:1019A0004E4505D293468A4607465FEA060906D0A9
:1019B000491C0F29DED916B1521C0F2AD6D905EBC6
:1019C00045006421B0FBF1F1494502D80098BDE81B
:1019D000FC9FCA488442207B40F0800020734FEA7D
:1019E000172020712770207B00F07F0020734FEAC2
:1019F0000B1005D1C0B20AF00F010843A06204E049
:101A00000AF00F01084384F8280001200090DEE767
:101A10002DE9F0410446FFF771FFA7680546DFF89E
:101A2000EC8207F00E06012800D136B1062E10D048
:101A3000042E1BD00C2E19D022E0B04A107EB449DF
:101A4000096809B1884727E0506820F08800506095
:101A500022E0207D10F09E001ED008EB0511C96821
:101A60000029EFD1606820F0040014E008EB0510B5
:101A7000406808B1804703E0606820F001006060C2
:101A8000022E09D108EB0510006808B1804703E079
:101A9000606820F00200606017F440700FD0216A87
:101AA00000F440721143216208EB0511896811B1FD
:101AB000BDE8F0410847606820F440706060BDE810
:101AC000F0818E4A012904D010F8302F00210170D6
:101AD000704710F8301F41F08001F8E710B5034659
:101AE0000021FFF7EEFF8448834205D10021BDE8C5
:101AF00010400820FEF786BB10BD70B504467E4836
:101B00000D46844203D101210820FEF77BFB7B4E6A
:101B1000072280210020B4422272207201D017E0F7
:101B20002278227DD207FBD184F83010217D8906EE
:101B3000FCD584F83000606020732062207484F843
:101B40004C0084F8540084F85000217E0DE0227887
:101B5000227DD207FBD184F83010217D8906FCD587
:101B600084F83000606020732062217D66498C42D9
:101B700001D184F8240020462968FFF7D0FE207B9D
:101B8000697900F0C00029B1012910D0022911D0D3
:101B900040F003002979C1B140F00800012914D0B8
:101BA00002290AD003290BD004290ED10BE040F002
:101BB0000100EFE740F00200ECE740F0100004E025
:101BC00040F0200001E040F03000A979012901D166
:101BD00040F00400207370BD4FF4165101600321E2
:101BE00041710021017181717047444A0170704751
:101BF0004249007870474149017B41F0400101733F
:101C0000704710B5072914D2DFE801F00406080A6E
:101C10000C0E110001240CE002240AE0042408E068
:101C2000082406E0802404E04FF4807401E04FF4BF
:101C300000743249012A05D08842416805D140F23A
:101C40008F3204E04168214303E040F20732A243AF
:101C50001140416010BD2949884201D1087D70477B
:101C6000007D7047007D400601D5002070470120AF
:101C70007047CB78012223B1012B06D0022B06D06E
:101C8000C1224B78012B04D005E04122F9E78122E3
:101C9000F7E742F004020B78012B01D142F0020277
:101CA0008978012901D142F0080202F0CF010172C6
:101CB000704700218170C17001210170417070472F
:101CC00030B50023012A08D10C78012C00D1022361
:101CD0004978012901D143F00403084D1024002163
:101CE000A8421ED1012A1AD1027B42F0800202735F
:101CF00001700171017B0DE000C000400000014057
:101D000000800940A086010000C00940A40800101E
:101D10005C01001021F08001017384620FE0016218
:101D200030BD012AFBD1027B42F0800202730170B8
:101D30000171017B21F08001017380F8284043F09C
:101D40000101ECE7F0B5012B14460D4607464FF0B4
:101D5000000330D14FF0FF3C18E0664602E04EB37E
:101D6000A6F10106387D8006F9D51EB310260AE0DB
:101D700015F8011B3846FFF738FF761EA4F1010461
:101D800003F1010302D0002CF2D116E0002CE4D1C3
:101D900013E0387D800610D5102609E015F8011BE8
:101DA0003846FFF722FF641E761E03F1010302D0BE
:101DB000002CF3D101E0002CEBD11846F0BD70B53A
:101DC000012B0C4605464FF000031DD15E1E0EE0B0
:101DD000314601E0D1B1491E287DC007FAD0A9B132
:101DE0002846FFF705FF521E04F8010B5B1C002A72
:101DF000EED10BE0287DC00708D02846FFF7F8FE9B
:101E00005B1C04F8010B521E002AF3D1184670BD6A
:101E100030B50D46FFF772FD104C052D07D2DFE8F7
:101E200005F003070A0E120004EB0010426030BDFB
:101E300004EB001008E004EB0010826030BD04EBFE
:101E40000010C26030BD0648026030BD0548DFE5C5
:101E50000548DDE50548DBE50548D9E5A40800109F
:101E60005C01001000C000400000014000800940FB
:101E700000C00940806880B27047816070472DE9DA
:101E8000F041044600206061204600F02AFAF84E36
:101E900000EB400006EB8001A269496892B24A61FA
:101EA000D20702D00120206230E04B680A699342D9
:101EB00013D1CB68934210D157E0A2688D6892B2DB
:101EC0001DB156F8207087B1EA5256F82020002A3A
:101ED000CA680CD002F10202CA60E26852073DD51E
:101EE000D1E903329342E8D138E0EA54EDE7521CDD
:101EF000F2E70B6873B156F820509DB19A5AA26070
:101F00004A68921C4A60A269D20720D0486940F40E
:101F100000703BE056F8202012B14FF6FF72EEE75A
:101F2000FF2200E09A5CA2604A68521CEAE7A268BD
:101F30008D6892B21DB156F820700FB3EA5256F870
:101F40002020002ACA681DD002F10202CA60E2689D
:101F5000520703D5D1E903329342E8D1E2689207F0
:101F600003D50B694A689A42C3D1D1E90320824262
:101F700002D14A68824207D00F206061BDE8F0813B
:101F8000EA54DCE7521CE1E74FF48070486188694D
:101F90000028F3D0BDE8F041004770B50446B548CD
:101FA0000D46844201D12A2003E0B348844220D167
:101FB0001420FEF714F901460022501E02230AE005
:101FC000501C5843B1FBF0F0A84204D9521CFF2A20
:101FD00001D900229B1CA842F2D82068C0B2206020
:101FE00020684FF6FF7101EA022108432060D8B251
:101FF000206170BD9F49884203D100214FF4001039
:1020000004E09D49884203D100210015FEF7FAB88B
:10201000704770B5054697480C46854202D10121AC
:10202000480504E09448854223D101210015FEF7BC
:10203000E9F8A088218922880843218A11430843AE
:1020400080B22860284600F04CF922688849072AA7
:1020500001D9012200E0002200EB400041F82020DD
:10206000207B00F00F00686028466169BDE8704081
:1020700093E770BD00214160804A42618160072280
:10208000C1600260016170470129416803D001F01D
:102090000D014160704741F00201FAE701294168F2
:1020A00003D001F00E014160704741F00101FAE7F1
:1020B0000129416803D041F008014160704701F0F7
:1020C0000701FAE72DE9F05F05460020C860486087
:1020D00090460C46486100E0A868E8684007FBD4D9
:1020E00003202862284600F0FCF8DFF884C100EBEA
:1020F00040014FF0FF335CF821001A0C4FF4807B55
:10210000B8F1000F03D0B8F1010F5ED074E018B140
:10211000D4F80090A66840E0D4F800A0A7683CE09E
:10212000D5F80C805FEA88780AD58C4508D02168FC
:1021300069B190B139F8021BA9606168891C6160BE
:10214000A9695FEAC17C21D041F4007053E008B175
:10215000AA60F2E7FF21A96002E01AF8011BA9605A
:102160006168491CEBE7A968D4F808C089B2BCF1E2
:10217000000F06D010B126F8021B03E007F8011B80
:102180001BE0D0B1E16801F10201E160E9684907B3
:1021900003D5D4E9031C6145E5D1D4F804C0216915
:1021A0008C45BDD1D4F80C808845B9D1C4F814B0A1
:1021B000206828B16046BDE8F09FE168491CE4E76B
:1021C000A0680028F7D04046F5E7AFF24D360CEB9B
:1021D0008100C0E9014636E026687EB15CF82170D6
:1021E0009FB1305AA8606068801C6060A869C6070B
:1021F00022D040F4007060611846DCE75CF82100F2
:1022000008B1AA60EFE7FF2000E0305CA8606068DA
:10221000401CEAE7A868A76880B22FB15CF821806B
:10222000B8F1000F20D0B8535CF821000028E06816
:102230001CD000F10200E060E868400703D5D4E953
:1022400003608642E6D1E868800703D526696068A6
:10225000B042C1D1D4E90310814202D16168814208
:102260000ED00F2068610DE0B855DDE7401CE2E7B5
:10227000E4080010008008400000034040420F00C6
:10228000C4F814B0002096E7C068084000D00120D0
:102290007047012A426904D00F238B431A404261E0
:1022A00070470A43FBE78069084000D0012070476F
:1022B000C069084000D00120704701627047012AC0
:1022C000426A04D003238B431A40426270470A4398
:1022D000FBE70A4881680A480847084841690948F5
:1022E00008470749884201D10020704705498842C4
:1022F00001D1012070474FF0FF307047E408001013
:1023000000800840000003402F4A53682F490968A5
:1023100003B951605368C91A81424FF0000001D9D6
:1023200050600120704710B504462046FFF7ECFFCF
:102330000028FAD010BD10B52448234A00689168DF
:10234000411AB1F5967F0BD91478214B4FF00071EB
:1023500014B1D967002101E09967012111709060E3
:1023600010BD10B51948184A00689168411AB1F5B6
:10237000967F0BD95478164B4FF0806114B1D96712
:10238000002101E0996701215170906010BD18B5DE
:1023900000238DF800309DF800309DF80040C35CAC
:1023A0000C446478A34207D19DF800300A2B03D275
:1023B0009DF800305B1CECE79DF80000904201D1D5
:1023C000012018BD002018BD60010010440000105D
:1023D00000C00920504908B50A68104400900868F8
:1023E000009A9042FBD308BD4C4908B5CA68104416
:1023F0000090C868009A9042FBD308BD10B504460F
:102400000420FFF7E7FF464A506920F4701104F0FA
:102410000F0041EA8040506110BDF0B5064600094A
:10242000FFF7ECFF3E4C4FF48067E7610225A561A2
:102430000520FFF7D9FFE5613046FFF7DFFFE761D1
:10244000A5610520FFF7D0FFE561F0BDF0B50646B8
:102450000009FFF7D3FF324C4FF48067A7610225D4
:10246000A5610520FFF7C0FFE5613046FFF7C6FF15
:10247000A761A5610520FFF7B7FFE561F0BD10B5C5
:1024800004460520FFF7A6FF02E0641CFFF7DEFF0D
:1024900020780028F9D110BD11B1C030C0B2BCE71E
:1024A0008030FBE730B51E4C20681E490843206091
:1024B00040F20240E0610220FFF78CFF2820FFF786
:1024C000ACFF0225A5610520FFF78EFFE561022024
:1024D000FFF780FF0C20FFF7A0FFA5610520FFF7A5
:1024E00083FFE5610220FFF775FF0120FFF795FFED
:1024F000A5610520FFF778FFE5610220FFF76AFF7D
:102500000620FFF78AFFA5610520FFF76DFFE56153
:10251000BDE8304002205DE74400001000000B40A1
:1025200000C0092002043C0010B54FF46074012281
:1025300021460220FEF72BFE002278210220FEF722
:1025400026FE2146BDE810400220FEF72EBE10B543
:102550004FF440710220FEF728FE80210220FEF792
:102560002CFE0220FEF731FE044614F0100F01D1BC
:10257000012010BD14F0400F01D10420F9E714F040
:10258000080F01D10720F4E714F0200F01D10A2031
:10259000EFE74FF4C0710220FEF707FE4FF4007121
:1025A0000220FEF70AFE0220FEF70FFE044614F09A
:1025B000100F01D10220DCE714F0400F01D10520FB
:1025C000D7E714F0080F01D10820D2E714F0200F4C
:1025D00001D10020CDE74FF420710220FEF7E5FD88
:1025E0004FF480710220FEF7E8FD0220FEF7EDFDBA
:1025F000044614F0100F01D10320BAE714F0400F85
:1026000001D10620B5E714F0080F01D10920B0E789
:1026100014F0200F01D10B20ABE7FF20A9E710B584
:10262000FFF795FF154A0023FF2890700AD05178D4
:1026300061B102290ED004D81478A04204D1491CFB
:10264000517010BDFF201070537010BD107001202C
:10265000507010BD03200A4950701078087010BDEA
:1026600007480078FF2801D00120704700207047FC
:102670000349FF2208780A70704700006C010010BF
:1026800004000010FFF7E2BB504810B50278504933
:10269000CB6801F588701C5C8B681B5C5B1CDBB233
:1026A0009C4205D08B681A548868401CC0B2886070
:1026B00010BD10B5454C002201212046FFF7A1FABC
:1026C0002046FFF7CFFA0128FAD041480168426856
:1026D000C9B2D2B2914208D0426800F11001515CF7
:1026E00021704168491CC9B2416001684068C9B2A3
:1026F000C2B23848914202D10021017010BD0121BF
:1027000001702046BDE810400A46FFF77ABAFEE79E
:102710002DE9F04180460D4614462E460027002242
:1027200001214046FFF76DFA0EE02B483178026830
:1027300010308154761C103800682749401CC0B204
:1027400008607F1C601EC4B2002C08DD224840686F
:10275000C1B221480068401CC0B28142E5D11F4887
:10276000007810B9FFF7A5FF04E0012211464046AA
:10277000FFF747FA3846BDE8F0812DE9F041002621
:1027800015460C46074632463146FFF73AFA1048DE
:1027900000F588720AE0C168895C04F8011BC16811
:1027A000491CC9B2C160761C6D1EEDB22DB18168A5
:1027B000C368C9B2DBB29942EDD10122002138468B
:1027C000FFF71FFA3046BDE8F081000000C000406E
:1027D000FC0800106F010010FC0800106F010010D1
:1027E00010B586B004466846FFF744FC64B1FE4865
:1027F000FE4C059069462046FFF70BFC0121204660
:10280000FFF742FC06B010BDF948F1E730B589B0DA
:1028100003208DF8020000248DF8034001258DF877
:10282000005014208DF801008DF804406846FEF732
:10283000D5FD17208DF801006846FEF7CFFD182062
:102840008DF801006846FEF7C9FD15208DF80100DE
:102850008DF802406846FEF7C1FD8DF80050192042
:102860008DF801008DF802406846FEF7B7FD6C0652
:10287000002221460120FEF78AFC21460120FEF7B6
:1028800094FC0122540521461046FEF780FC2146A7
:102890000120FEF78AFC02A8FFF7ECFBD34D02A94A
:1028A0002846FFF7B6FB21460120FEF77EFC0020FC
:1028B000FFF796FF01212846FFF7E6FB09B030BD80
:1028C00070B5064615460C46FF2003F01FF94FF47D
:1028D00000110120FEF771FC46F0400003F016F9EC
:1028E000200E03F013F9C4F3074003F00FF9C4F30B
:1028F000072003F00BF9E0B203F008F9284603F0D3
:1029000005F90024FF2003F001F9C0B2FF2803D12C
:10291000641CE4B2C82CF5D370BD2DE9F041074624
:1029200015460C46FF2003F0F1F84FF4001631462F
:102930000120FEF742FC47F0400003F0E7F8200ECC
:1029400003F0E4F8C4F3074003F0E0F8C4F3072011
:1029500003F0DCF8E0B203F0D9F8284603F0D6F82B
:102960000024FF2003F0D2F8C5B2FF2D03D1641C70
:10297000E4B2C82CF5D331460120FEF716FCFF2047
:1029800003F0C4F82846BDE8F0812DE9F0410027A6
:10299000FFF73CFF0120FEF718FC800101D5781EEF
:1029A000F1E70020401C80B2FF28FBD90024FF2063
:1029B00003F0ACF8641CA4B20A2CF8D3002440F64F
:1029C000FF75002195220846FFF7A7FFC0B2012836
:1029D00007D0641CA4B2AC42F3D3AC4201D10120B5
:1029E000D1E787224FF4D5710820FFF769FFC0B205
:1029F000804E4FF40018052802D0012848D0A0E0EE
:102A0000012086F84E004146FEF7CFFBFF2003F081
:102A10007DF80024002211463720FFF77EFFC0B268
:102A20000128B0D1002211462920FFF776FF10F0CF
:102A3000FF0F18D0641CA4B2AC42EBD3AC4212D14D
:102A40000024002211460120FFF767FF10F0FF0F5E
:102A500007D0641CA4B2AC42F3D3AC4201D1022033
:102A600091E786F84E700120FFF7BAFE012200219F
:102A70003B20FFF752FF10F0FF0084D1FF224FF4FC
:102A800000711020FFF749FF10F0FF0088D158E0D7
:102A9000FF2003F03BF8FF2003F038F8FF2003F09D
:102AA00035F8C7B2FF2003F031F8C4B24146012027
:102AB000FEF77BFBFF2003F029F8012F41D1AA2C60
:102AC0003FD10024BF07002211463720FFF725FF22
:102AD000C0B2012884D1002239462920FFF71DFF0A
:102AE00010F0FF0F07D0641CA4B2AC42EBD3AC4291
:102AF00001D1032047E7002211463A20FFF7E0FE0C
:102B000010F0FF00ACD1FF2003F000F80446FF20D6
:102B100002F0FCFFFF2002F0F9FFFF2002F0F6FFB9
:102B200041460120FEF741FBFF2002F0EFFF600667
:102B300001D5042000E0022086F84E000120FFF7B6
:102B40004FFE00201FE72DE9F0470D4606464FF4E3
:102B50000019904649460120FEF72FFB00244FF450
:102B6000FA67FF2002F0D2FFC0B2FE280CD0641C2E
:102B7000A4B2BC42F5D3BC4206D149460120FEF7BF
:102B800014FB0120BDE8F087002404E002F0BEFF42
:102B90003055641CA4B2AC424FF0FF00F6D302F0F3
:102BA000B5FFFF2002F0B2FFB8F1000F06D0494692
:102BB0000120FEF7FAFAFF2002F0A8FF0020E1E76B
:102BC00010B5044688B0FF2200210920FFF7A5FEBA
:102BD00010F0FF0006D1012210216846FFF7B3FF75
:102BE00050B1012008B010BD00093D000080084030
:102BF00020A107000C0B0010FF2200210A20FFF784
:102C00008CFE10F0FF00EDD10122102104A8FFF787
:102C10009AFF08B10220E5E79DF8000080092070C6
:102C20009DF80000C0F3830060709DF8000000F084
:102C30000300A0709DF80100E0709DF80200207173
:102C40009DF8030060719DF804000001E0809DF88C
:102C5000051040EA1110E0809DF80500002100F009
:102C60000F0020729DF80600C00960729DF80600F2
:102C7000C0F38010A0729DF80600C0F34010E0720F
:102C80009DF80600C0F30010207361739DF80600E4
:102C90008007000D20619DF8072040EA8200206136
:102CA0009DF8082040EA921020619DF80800C0F3CA
:102CB000C20020759DF8080000F0070060759DF8BF
:102CC00009004009A0759DF80900C0F38200E07575
:102CD0009DF809008007400F20769DF80A2040EA01
:102CE000D21020769DF80A00C0F3840060769DF82B
:102CF0000A008007C00EA0769DF80B2040EA521013
:102D0000A0769DF80B0000F01F00E0769DF80C0007
:102D1000C00920779DF80C00C0F3411060779DF842
:102D20000C00C0F38200A0779DF80C008007000F14
:102D3000E0779DF80D2040EA9210E0779DF80D00B5
:102D4000C0F3401084F8200084F821109DF80D0095
:102D5000012100F0010084F822009DF80E00C00956
:102D600084F823009DF80E00C0F3801084F824003E
:102D70009DF80E00C0F3401084F825009DF80E0069
:102D8000C0F3001084F826009DF80E00C0F3810007
:102D900084F827009DF80E0000F0030084F8280056
:102DA0009DF80F00400884F8290084F82A1094F850
:102DB0004E00042807D19DF80800000220619DF80C
:102DC000092010442061243434F8140CC00420621B
:102DD0004FF4007060629DF8100020729DF81100A1
:102DE000000260819DF81220104360819DF813005D
:102DF0000006E0609DF8142040EA0240E0609DF883
:102E0000152040EA0220E0609DF816201043E060A3
:102E10009DF8170020749DF8180060749DF8190043
:102E2000000660619DF81A2040EA024060619DF84A
:102E30001B2040EA022060619DF81C201043606165
:102E4000207E9DF81D2040EA121020769DF81D007E
:102E50000007000D60839DF81E20104360839DF8DD
:102E60001F004008207761770020BBE610B50C46B4
:102E70009E4991F84E10042900D0400201460022DC
:102E80001120FFF74AFD10F0FF0F01D00120AAE644
:102E9000012251022046FFF756FEC4B2002211461D
:102EA0000C20FFF73AFD20469DE62DE9F0410E4645
:102EB0008E49154691F84E10042900D04002014673
:102EC00000221220FFF729FD10F0FF0F01D0012092
:102ED00059E500244FF400174FF4007812E006EB98
:102EE000442000224146FFF72EFE50B10022114639
:102EF0000C20FFF712FD39460120FEF756F902209B
:102F000041E5641CAC42EAD3002211460C20FFF7D5
:102F100004FD39460120FEF748F9FF2002F0F6FDD6
:102F2000002030E52DE9F0410D46704991F84E1032
:102F3000042900D04002014600221820FFF7EDFCD2
:102F400010F0FF0F01D001201DE54FF400163146AF
:102F50000120FEF732F9FF2002F0D8FDFF2002F039
:102F6000D5FDFF2002F0D2FDFE2002F0CFFD0024AF
:102F7000371315F8010B02F0C9FD641CA4B2BC4262
:102F8000F7D3FF2002F0C2FDFF2002F0BFFDFF20BB
:102F900002F0BCFD00F01F00052805D031460120DD
:102FA000FEF703F90220EEE40024514D08E0641C12
:102FB000AC4205D131460120FEF7F7F80320E2E4E8
:102FC000FF2002F0A3FD0028F1D031460120FEF7DA
:102FD000ECF8FF2002F09AFD0020D4E42DE9F05F28
:102FE000044642480D46914690F84E10042901D0FF
:102FF000640221B1002249461720FFF78EFC00220F
:1030000021461920FFF789FC10F0FF0F02D00120A4
:10301000BDE8F09F4FF4001B59460120FEF7CDF8A4
:10302000FF2002F073FDFF2002F070FDFF2002F090
:103030006DFD0026DFF8B8804FF4007A31E0FC2007
:1030400002F064FD0024574615F8010B02F05EFD06
:10305000641CA4B2BC42F7D3FF2002F057FDFF204E
:1030600002F054FDFF2002F051FD00F01F00052882
:1030700005D059460120FEF798F80220C8E7002441
:10308000474608E0641CBC4205D159460120FEF7C2
:103090008CF80320BCE7FF2002F038FDFF28F1D1B7
:1030A000761C4E45CBD3FD2002F030FD10F0FF0F13
:1030B00002D0002445460AE00420A9E7641CAC4283
:1030C00005D159460120FEF770F80520A0E7FF2042
:1030D00002F01CFDFF28F1D159460120FEF765F8EA
:1030E000FF2002F013FD002092E700000C0B0010FF
:1030F0000100040010B510B1012804D110BDFFF784
:1031000044FC0028FAD0012010BD002804D001287A
:1031100003D0022801D0012070470020704710B56D
:1031200014460BB150B901E0042010BD012B07D0AB
:103130001A462046FFF7B9FE0028F6D0012010BD40
:103140001046FFF793FEF7E710B514460BB150B9E0
:1031500001E0042010BD012B07D01A462046FFF7DE
:103160003DFF0028F6D0012010BD1046FFF7DAFE23
:10317000F7E770B514460D46A0B90C48FFF720FDDF
:103180000A48042D0ED2DFE805F00B020D08D0E945
:103190001110B1FBF0F0206002E0B0F84800208090
:1031A000002070BD042070BD002070470C0B001083
:1031B0002DE9F041C56A0F460446BD422BD0217966
:1031C00004F13008D9B1607801232A464146FFF75F
:1031D000BBFFE0B900202071D4E907100844A842E1
:1031E0000DD9E67809E0E0690123054460782A46B4
:1031F0004146FFF7A9FF761EF6B2012EF3D857B16C
:10320000607801233A464146FFF789FF10B101205B
:10321000BDE8F081E7620020FAE72DE9F0410446BD
:103220000021FFF7C5FF050050D12078032846D1C3
:103230006079E8B3002604F130004FF400723146A3
:103240000746E66201F0FFFB552084F82E02AA2013
:1032500084F82F02522084F8300084F83100612273
:1032600084F83220412084F83300722184F814124B
:1032700084F8151284F8160284F81722206984F85D
:103280001802010A84F81912010C84F81A12000EAF
:1032900084F81B02E06884F81C02010A84F81D12FD
:1032A000010C84F81E12000E84F81F02607800E002
:1032B00005E0012339466269FFF746FF6671002287
:1032C00060781146FFF755FF00B1012528469FE7BA
:1032D0008269891E921E8A4201D800207047826A44
:1032E000807801FB002070472DE9F0410D4604462F
:1032F000022902D3A069A84201D8012088E72078DA
:10330000012804D0022826D0032837D12FE0206AD4
:1033100005EB550600EB56212046FFF749FF68BB39
:10332000C6F308002044761C90F83070206A00EB49
:1033300056212046FFF73CFF00BBC6F3080020449F
:10334000E90790F8300047EA002001D000095FE764
:10335000C0F30B005CE7206A00EB15212046FFF765
:1033600027FF58B9E8B204EB4000008E50E7206A0E
:1033700000EBD5112046FFF71BFF10B14FF0FF30D7
:1033800046E740F2FF1000EA8500204490F8301034
:10339000D0F8310041EA002020F0704038E72DE9F4
:1033A000F04716460D460446022902D3A069A842FA
:1033B00002D80220BDE8F087207806F0FF084FF021
:1033C0000109012807D0022837D0032846D002205F
:1033D00084F80490EEE7206A05EB550700EB5721CF
:1033E0002046FFF7E5FE0028F2D1C7F3080020448D
:1033F0003030E90703D0017868F31F1100E031464F
:10340000017084F80490206A7F1C00EB572120464D
:10341000FFF7CEFE0028DBD1C7F30801214430318D
:10342000EA0702D0C6F3071205E00A78C6F30323C1
:1034300002F0F0021A430A70CAE7206A00EB152175
:103440002046FFF7B5FE0028C2D1E9B204EB4101E6
:10345000320A81F8308081F83120B9E7206A00EB28
:10346000D5112046FFF7A4FE0028B1D140F2FF118C
:1034700001EA8501214430314FF07043D1F8012039
:1034800003EA022232430A70130A4B70130C8B704A
:10349000120ECA709CE72DE9F0410F46054602293D
:1034A00018D3A869B84215D900264FF001081DE0CD
:1034B00039462846FFF718FF04001AD0012C09D01E
:1034C000601C09D0002239462846FFF768FF060035
:1034D0000FD103E002260CE001260AE02869411C16
:1034E00003D0401C286185F805802746A869B842AA
:1034F000DED830468CE62DE9F0410F00064605D0B7
:10350000FFF7F2FE022808D2012081E6F56815B126
:10351000B069A84205D8012503E0B1698142F4D819
:103520003D462C46B069641CA04202D80224022DFC
:103530000AD321463046FFF7D7FE38B1411CE4D00C
:103540000128E2D0AC42EDD1002061E66FF070427C
:1035500021463046FFF723FF30B957B1224639469E
:103560003046FFF71CFF20B101280BD00124204674
:103570004EE6F4603069411CF9D0401E30610120F4
:103580007071F4E74FF0FF34F1E770B50D46C1807C
:103590008168044601291ED0206882698A421AD9AE
:1035A00021B90278032A04D1416A11B18078060159
:1035B00017E0E1600189A9420DD9406A17E020684F
:1035C000FFF792FE0146401C07D0022903D3206872
:1035D0008069884203D8022070BD012070BDA81BFD
:1035E00085B2B542EBD2E1602068FFF771FE00EBD7
:1035F0001510206105F00F013022206802EB411107
:1036000008446061002070BD2DE9F0410446C08887
:103610000E46401C07043F0C2DD0206958B33907D3
:103620005CD1401C2061E168206829B18278521E7B
:1036300012EA171F04D051E00089B8421BD94DE0AF
:10364000FFF752FE0546012819D9681C31D02068C1
:103650008169A9423CD876B1E168FFF74CFF0500CB
:103660000BD0012D0BD0681C23D000212068FFF760
:103670009FFDF0B905E00420CAE50720C8E5022057
:10368000C6E520684FF400723030002101F0DBF90C
:1036900029462068FFF71CFE216800264FF001082C
:1036A000C8620EE080F8048000212068FFF780FDEA
:1036B00008B10120ACE52068C16A491C761CF6B24D
:1036C000C16220688178B142ECD8C16A891BC162AD
:1036D000E56029462068FFF7FBFD2061E78007F0E1
:1036E0000F013022206802EB411108446061002084
:1036F0008EE510B50446042015E02068FFF758FD5C
:10370000B0B96269117861B1E52904D02E2902D0DF
:10371000D17A09070ED500212046FFF775FF10B1B9
:1037200006E0042004E021690029E6D1002801D048
:103730000021216110BD70B505460021FFF725FF6E
:103740000EE029692868FFF733FD04001FD168697E
:103750000078E52807D030B101212846FFF754FF53
:103760000400EED013E029692868FFF721FD04006A
:103770000DD16E6920220021304601F064F90B2240
:103780003046A96901F057F92968012008712046DF
:1037900070BD10B50446C188FFF7F7FE00280BD1B5
:1037A00021692068FFF704FD002805D16269E52141
:1037B000117022680121117110BD2DE9F047846953
:1037C00089460B222021204601F03DF900200246C7
:1037D000D9F800C0134608261CF80010401C202908
:1037E00043D92F2941D05C293FD02E2901D0B342A3
:1037F00008D3082E47D12E2945D108230B26910640
:103800000A0EE9E7802901D342F00302A1F1810504
:103810007D2D10D81CF80050401CA5F140073F2F0B
:1038200002D3403F7F2F2ED2771EBB422BD2E154D2
:103830005B1CE55417E0F7A500E06D1C2F7817B16D
:103840008F42FAD11FE0A1F14105192D02D842F0B3
:10385000020207E0A1F16105192D03D8203942F0D9
:103860000102C9B2E1545B1CB6E70CEB0005C9F8D4
:103870000050202901D8042000E000201BB121784D
:10388000E52902D003E0062094E505212170082EE9
:1038900001D191060A0E02F00301012901D140F085
:1038A0001000C2F38101012901D140F00800E0724B
:1038B00000207FE510B5036901F109023BB34069BF
:1038C0000024035D202B07D0052B00D1E523641CC9
:1038D00002F8013B082CF4D3037A202B0BD02E23C3
:1038E00002F8013B0823C45C202C04D05B1C02F8C6
:1038F000014B0B2BF7D3C37A0B72037FD0F81D401B
:1039000043EA04230B60038B8B80C08AC8800020AD
:10391000107010BD73B50446019908782F2801D0A6
:103920005C2801D1491C01910025A560019800780F
:10393000202805D200212046FFF727FE65617CBDC7
:1039400001A92046FFF739FF0028F8D100212046C1
:10395000FFF71BFEF8B921692068FFF729FCD0B9F1
:1039600061690A7872B1CA7A12070ED40B23A26970
:1039700000255B1E08D311F8015B12F8016BAD1B2B
:10398000F7D002E0042006E02DB100212046FFF729
:103990003BFE0028DFD0A169C97A28B10428CED126
:1039A0004907CCD405207CBD4907FCD46069C17AA5
:1039B000C906F7D5818A408B61F31F40A060BFE73D
:1039C00010B504460A464078012304F13001FFF7A0
:1039D000A6FB08B1032010BDB4F82E12A1F52A40B1
:1039E000553801D0022010BD94F86600B4F8671075
:1039F00040EA01218B48B0EB012F08D094F88210E7
:103A0000B4F8832041EA0221B0EB012F01D100205C
:103A100010BD012010BD2DE9F04715460A4601688A
:103A20000B78303B092B07D84C783A2C04D1891CF1
:103A300001600BB10B20BDE47B48046814609CB1AD
:103A4000207820B16078FFF760FBC1070ED04FF0FF
:103A5000000984F80090484684F80190FFF74AFB7B
:103A6000C10708D00320A5E40C20A3E40DB1400752
:103A700004D400209EE41DB1400701D50A2099E43A
:103A8000002631462046FFF79BFF01280CD104F5A4
:103A9000F7700179F1B3017AD0F8090041EA002604
:103AA00031462046FFF78CFF032801D090BB01E090
:103AB00001207FE4B4F83B00B0F5007F57D1B4F8A3
:103AC000460028B994F85400D4F8551040EA012073
:103AD000E06194F840108446E170012901D0022988
:103AE00045D194F83D504843A5709DB16A1E1542DA
:103AF0003DD1B4F841202281110738D1B4F84310E8
:103B000029B994F85010D4F8513041EA0321E38FD9
:103B100003B100E02BE01F1807EB1217B94226D3C0
:103B2000C91BB1FBF5F111B3012540F6F67841450B
:103B300000D302254FF6F678414500D303253744DC
:103B4000891C3344A7622362A161032D11D072B195
:103B500018446062022D17D001F0010001EB410111
:103B600000EB510000F2FF10BCEB502F0ED20D20E5
:103B700020E4002AFBD194F85C00D4F85D2040EAF0
:103B8000022060628800EDE74800EBE74FF0FF306D
:103B9000C4E903904F46032D31D16771B4F860003A
:103BA000012382196261607804F13001FFF7B7FAEE
:103BB00028BBB4F82E02A0F52A4155391FD194F83C
:103BC0003000D4F8311040EA01201849884216D15B
:103BD00094F81402D4F8151240EA012014498842DE
:103BE0000DD194F81C02D4F81D1240EA0120E060C7
:103BF00094F81802D4F8191240EA012020610A4909
:103C00002570091F0888401C0880E080E762277142
:103C10002FE70000222A2B2C3A3B3C3D3E3F5B5DC8
:103C20007C7F0000004641547401001052526141F3
:103C30007272416108B10B207047FE4B0022186878
:103C400000B1027001B10A700020196070472DE9BF
:103C5000F7478BB04FF00009074602F01F06C0F887
:103C6000009026F0010269460CA8FFF7D4FE05007B
:103C700007A8069004D168460C99FFF74BFE05464D
:103C8000059C0DB904B9062516F01C0F4DD055B191
:103C9000042D03D16846FFF74EFD0546059C46F00E
:103CA000080645B169E0700701D5082565E0E07AAE
:103CB00010F0110F43D1300747D5FFF775FAA07305
:103CC000010AE173010C2174000E607484F80B90FA
:103CD00084F81C9084F81D9084F81E9084F81F903E
:103CE000A28A618B84F81A9084F81B9062F31F41BA
:103CF00084F81490884684F8159000990120087182
:103D00005FEA08011FD00098D0F82CA0FFF7C3FB92
:103D1000050032D10099A8F10100C8605146009811
:103D2000FFF746FA05000CD027E035BBE07AC10664
:103D300001D5042521E0B10703D5C00701D007252F
:103D40001BE0300701D546F020060098C06AC7E99D
:103D50000704BE71A18A608B61F31F403861207F28
:103D6000D4F81D1040EA0120C7E90290C7F8189066
:103D7000009838600098C088B88028460EB083E567
:103D80002DE9F05F894600211960044681889A4632
:103D90001646006800F05EFE002803D1A0790106F7
:103DA00002D50220BDE8F09FC00708D0D4E9021078
:103DB000401A04F1240B864200D9064680E0072011
:103DC000F0E7A068C10563D122689178491E01EA35
:103DD000502111F0FF0709D1F8B110466169FFF7D2
:103DE00083FA01281BD9411C4AD0606161692068AF
:103DF000FFF76EFA98B100EB0708750A26D0206825
:103E00007A1981788A4200D9CD1BEBB240784246BC
:103E10004946FFF784F998BB06E02069E1E7A079FD
:103E200040F08000A071BCE7A07940060BD5A169E5
:103E3000A1EB0800A84206D209EB40204FF4007223
:103E4000594600F0F8FD4FEA45252FE0A0794006DD
:103E50000BD52068012359464078A269FFF774F911
:103E600070B9A07920F04000A071A16941450DD042
:103E700020680123424640785946FFF750F928B19F
:103E8000A07940F08000A07101208BE7C4F8188071
:103E90002089C0F30800C0F50075B54200D9354649
:103EA000011924312A46484600F0C5FDA068A944FE
:103EB0002844A060DAF800004119761BCAF8001007
:103EC000002E7FF47EAF00206CE72DE9F05F89467D
:103ED00000211960044681889A461646006800F061
:103EE000B9FD002803D1A079010601D5022059E7C8
:103EF000800701D4072055E7E06804F1240B8219FC
:103F0000824274D393E0A068C10574D1226891788D
:103F1000491E01EA502111F0FF050BD1B0B1104646
:103F20006169FFF7E8FA002861D0012832D0411C0E
:103F300057D06061A079400615D520680123594605
:103F40004078A269FFF700F9D8BB08E02069002893
:103F5000EBD100211046FFF7CEFA2061E3E7A0790C
:103F600020F04000A07161692068FFF7B1F988B1C5
:103F700000EB0508770A25D02068EA1981788A4283
:103F800000D94F1BFBB2407842464946FFF7DCF8A8
:103F9000B8B904E0A07940F08000A071A6E7A1695B
:103FA000A1EB0800B8420AD209EB40214FF400729D
:103FB000584600F040FDA07920F04000A0717D023D
:103FC0002BE00EE0A169414513D0D4E902018842FB
:103FD0000FD220680123424640785946FFF79FF8E8
:103FE00038B1A07940F08000A0710120DAE625E028
:103FF00001E0C4F818802089C0F30800C0F50075FE
:10400000B54200D93546204424302A46494600F0BE
:1040100012FDA07940F04000A071A068A944284496
:10402000A060DAF800004119761BCAF80010002ED3
:1040300002E00000740100107FF465AFD4E90201D2
:10404000884200D9E060A07940F02000A0710020F3
:10405000A8E670B504468188006800F0FBFC0028E3
:104060000ED1A1798A060BD548060ED5206801230A
:1040700004F124014078A269FFF766F808B1012035
:1040800070BDA07920F04000A071E1692068FFF7C1
:104090008FF80028F4D1256AE87A40F02000E87211
:1040A000207B2877A089000A6877E068000CA87751
:1040B000E068000EE877207CA876208A000AE8767F
:1040C0002069000C28752069000E6875FFF76CF8F0
:1040D000A875010AE975010C2976000E6876A079A9
:1040E00020F02000A0712168012008712068BDE83F
:1040F0007040FFF792B810B50446FFF7AAFF0028FA
:1041000001D10021216010BD2DE9F0410D4604468A
:104110008188006800F09EFC5FEA000803D1A17965
:10412000080602D50220BDE8F081E068A84202D26C
:10413000890700D405460027A068A760FDB1226862
:1041400091784E0268B1691E401EB1FBF6F1B0FBDA
:10415000F6F3994205D3711E8843A0602D1A616958
:104160000CE0216949B900211046FFF7C4F9014666
:1041700001283FD0481C4ED021616161D1B926E0B1
:10418000A0798007206805D5FFF7B5F9010004D1B3
:10419000354611E0FFF7A8F80146481C3BD001293D
:1041A00028D920688069884224D96161A068AD1B44
:1041B0003044A060B542E3D8A0682844A060E80578
:1041C00005D02068FFF784F8A0B100EB55272089BF
:1041D000C00527D0A269BA4224D0A07904F12405F1
:1041E000400610D52068012329464078FEF7ACFF31
:1041F00088B904E0A07940F08000A07192E7A0792E
:1042000020F04000A071206801233A4640782946FA
:10421000FEF785FF28B1A07940F08000A071012051
:1042200081E7A761D4E90201884204D9E060A0795E
:1042300040F02000A071404675E713B584B00446F5
:104240000146002205A8FFF7E6FB00281AD1C4F8B2
:1042500018D020460599FFF75DFB80B9606938B139
:10426000C17AC9060DD5818A408B61F31F40A060D9
:1042700020680021C088A0802046FFF786F9042826
:1042800000D1052006B010BDFEB50D46044681885C
:10429000006800F0DFFB002816D1B5B1C4F818D0D3
:1042A0002046FFF726FA0026042813D000280BD159
:1042B00029462046FFF7FEFA00212046FFF7A4F921
:1042C000042801D100202661FEBD00212046FFF711
:1042D0005CF9FEBD2661EBE733B58BB00D460022DD
:1042E00069460BA8FFF797FB04000FD107A80690BB
:1042F00068460B99FFF70EFB040007D1059820B123
:1043000029466846FFF7D6FA00E0062420460DB09D
:1043100030BD2DE9F74F15468A46002229466846EA
:10432000FFF779FB5FEA000854D1286887690169C3
:10433000BA1E914202D8CAF800104BE090F80090E3
:104340000024B9F1010F01D0066A17E002263146B8
:104350002868FEF7C9FF411C03D0012803D028B10B
:1043600005E0012000E00220804629E0641C286866
:10437000761C80698642EAD322E059B93146761C20
:104380002868FEF715FF5FEA000819D128684FF486
:1043900000713030B9F1020F07D00278D0F8013047
:1043A00042EA0322120106D006E0028802B9641C28
:1043B000801C891E02E0641C001D091F7F1EDCD1C9
:1043C0002868B9F1030F046102D1296801204871FE
:1043D000CAF800404046BDE8FE8F70B504468188AB
:1043E000006800F037FB05003DD1A179080601D532
:1043F000022538E0880701D4072534E0D4E9020219
:10440000824230D941F02001E060A17150B1616970
:104410002068FEF769FF0646401C0BD0012E0BD02A
:1044200065B11CE021692068FFF735F805460020DA
:10443000206113E0012512E0022510E02068816967
:10444000B14210D96FF070426169FEF7A8FF050014
:1044500005D131462068FFF71EF805461DB1A07949
:1044600040F08000A071284670BD11B591B00122C6
:10447000694611A8FFF7CFFA002819D10EA80690B7
:1044800068461199FFF746FA002811D1059A8AB1BA
:10449000D17AC90700D00720918A548B002861F394
:1044A0001F4405D1D07AC0061AD5022C04D20220AE
:1044B00012B010BD0620EFE71C22694607A800F0E5
:1044C000BAFA022107A80994FFF75FF80028EFD194
:1044D00007A8FFF70EF998B1042801D00028E7D10A
:1044E0006846FFF756F90028E2D12CB12146009822
:1044F000FEF7D1FF0028DBD10098FEF78EFED7E74C
:104500000720D5E72DE9F14F90B0FEF74DFE0746A5
:104510000122694610A8FFF77EFA040009D10DA810
:10452000069068461099FFF7F5F9040002D0042CB4
:1045300002D0AAE00824A8E000210098FEF7DBFFE3
:1045400006004FF0000402D0012E02D002E0072442
:1045500000E00224701C01D014B177E0012475E062
:1045600000210098FEF724FE04006FD13146009828
:10457000FEF7AEFE009D804630354FF400720021FC
:10458000284600F060FA0B222021284600F05BFA52
:104590002E242C701020E872F8B20C90A875C7F386
:1045A00007200B90E875C7F307400A902876380E6D
:1045B00009906876F0B20890A876C6F307200790B5
:1045C000E876C6F3074B85F814B04FEA166A85F80B
:1045D00015A02022294605F1200000F02CFA85F8CC
:1045E0002140009902980978032904D10099496A69
:1045F000814200D100203435010AA871E971010C13
:104600002970000E68700098343D4FF001098778DA
:1046100015E00099C1F82C80009908F1010881F893
:10462000049000210098FEF7C3FD04000ED14FF462
:1046300000720021284600F006FA7F1EFFB2002F0C
:10464000E7D16846FFF777F8040004D031460098B8
:10465000FEF721FF19E005981021C1720C998175B0
:104660000B99C1750A990176099941760899817665
:104670000799C17680F814B080F815A0009981F8E8
:1046800004900098FEF7C9FD044611B02046BDE82D
:10469000F08F37B58AB015460C46012269460AA844
:1046A000FFF7B9F9002816D107A8069068460A99BD
:1046B000FFF730F900280ED1059868B105F0270200
:1046C000C17A144091430C43C472009901200871CF
:1046D0000098FEF7A2FD1AE6062018E613B58AB088
:1046E0000C46012269460AA8FFF795F9002819D15E
:1046F00007A8069068460A99FFF70CF9002811D11F
:10470000059888B1A1798175E188090AC175217977
:104710000176A188090A4176009901200871009864
:10472000FEF77BFD0CB010BD0620FBE733B599B05A
:104730000C46012208A919A8FFF76DF9002851D1EC
:104740000898019015A80E9008A81999FFF7E2F8AB
:10475000002847D10D98E8B300F10B0115220FA8EE
:1047600000F069F91C2208A901A800F064F92146AB
:1047700001A8FFF7CFF870B3042833D101A8FEF7E2
:10478000DAFF00282ED1069C13220DF13E0104F120
:104790000D0000F050F99DF83C00012540F020008C
:1047A000E0720898057103990A98884235D0E07A3A
:1047B000C00632D5A08A618B60F31F410198FEF7D5
:1047C00087FD010012D00198FEF7F2FC01995031EB
:1047D000002801E005E007E004D148782E2807D042
:1047E0001BE004201BB030BD0820FBE70220F9E7E6
:1047F00001980078032806D1019A0398526A9042E2
:1048000001D1002000E003988876020ACA76020CE3
:104810000A75000E48750198057108A8FEF7B9FFE2
:104820000028DFD10898FEF7F8FCDBE72DE9FC4112
:1048300000259046074604464E1E0FE001AB0122BC
:1048400069464046FFF79CFA0198012808D19DF877
:1048500000006D1C04F8010B0A2801D0B542EDDB05
:104860000020207015B13846BDE8FC810020FBE730
:104870001CB50C468DF8040001226B4601A92046A8
:10488000FFF723FB0098012801D04FF0FF301CBD3B
:1048900070B50E460446002506E03146FFF7E8FFF6
:1048A000401C06D0641C6D1C20780028F5D12846D9
:1048B00070BD4FF0FF3070BD0FB42DE9FF470021F0
:1048C00082460EAD0F46E946A8E00D9A12F8010B9C
:1048D0000D9200287ED0252807D05146FFF7C8FF4B
:1048E0000146401C00D0012197E0002612F8010B80
:1048F000B0460D9230280BD1012606E008EB880265
:1049000000EB42000D9AA0F1300812F8010B0D9255
:10491000A0F13002092AF1D96C2801D04C2805D128
:104920000D9A46F0020612F8010B0D92002878D07D
:10493000A0F161020146192A01D82039C9B24F29D4
:104940001CD006DC422917D043290FD044290FD1AF
:1049500016E0532904D0552912D0582908D111E066
:1049600001CD5146FFF794FF014656E015F8040BC0
:104970005146FFF77DFFF7E7022304E0082302E03A
:104980000A2300E01023B20704CD442904D1002AF1
:1049900002DA524246F004060024CC461146B2FB2D
:1049A000F3F203FB1211C9B2092905D9C91DC9B215
:1049B000782801D12031C9B230310CF80410641CC0
:1049C0000AB1102CEAD3700703D52D2009F8040092
:1049D000641C00E025E0002008E0F00701D0302052
:1049E00000E020205146FFF743FF7F1C4246A8F11C
:1049F0000108A24201D9401CEFD14E46641E514627
:104A0000305DFFF735FF01467F1C00F1010014B156
:104A10000028F3D101E000B100210F44481C7FF4CD
:104A200054AF481C05D0384604B0BDE8F0075DF827
:104A300014FB0846F8E703E011F8013B00F8013BDE
:104A4000521EF9D27047C9B201E000F8011B521E94
:104A5000FBD2704710B520B1027812B1C2888A42E9
:104A600001D0092010BD4078FEF74FFBC007F9D0F8
:104A7000032010BD00F108014FF0FF32C0E9011220
:104A8000C160016100210160704700210161704730
:104A9000426853684B6043688B605368996051600B
:104AA000416008610168491C0160704710B50B68DE
:104AB0005A1C02D000F1080202E0026904E05268C8
:104AC000546824689C42FAD953684B6099608A60A4
:104AD000516008610168491C016010BDD0E90112F4
:104AE0008A60D0E90112516001694A68824201D1AD
:104AF00082684A60002202610868401E08607047B0
:104B000070B50D46044600F01AFFD4E90F12206874
:104B100001FB020363600023A363491EA06001FB45
:104B20000200E060581E6064A06404F110004DB102
:104B3000FFF7A0FF04F12400FFF79CFF00F007FF40
:104B4000012070BD21690029F8D000F0CEFD0128B8
:104B5000F4D100F0EEFEF1E72DE9F0410F4605003B
:104B60004FF0000616D04C20FBF786FB040011D056
:104B700005FB07F0401CFBF77FFB206038B1C4E960
:104B80000F5701212046FFF7BBFF264602E02046D3
:104B9000FBF794FB3046BDE8F08170B5044600F0A9
:104BA000CEFE04F124050AE0606A58B1284600F000
:104BB0009CFD08B100F0ECFDA06C401EA064A06C50
:104BC0000028F1DC4FF0FF35A56400F0C0FE00F0D6
:104BD000B6FE04F110060AE0206958B1304600F034
:104BE00084FD08B100F0D4FD606C401E6064606C10
:104BF0000028F1DC6564BDE8704000F0A8BE10B587
:104C00001346026C04468AB1CBB1E06800F0EDFEB9
:104C1000E168206C091AE1602268914202D2616861
:104C2000081AE060A06B401CA06310BD206800283B
:104C3000F8D1606800F0EDFD00206060F2E7A06848
:104C400000F0D3FE216CA0680844A060616888422F
:104C5000E8D32068A060E5E72DE9FF43002683B094
:104C6000984689460446374600F069FEA06BE16B22
:104C7000884214D2424649462046FFF7C0FF606A88
:104C800038B104F1240000F030FD012801D100F01A
:104C900050FE00F05CFE012007B0BDE8F0830598EF
:104CA00008B11EB106E000F052FE1DE0684600F0BB
:104CB00045FD012600F04BFE00F021FB00F03FFE19
:104CC000606C401C00D16764A06C401C00D1A764DC
:104CD00000F03DFE05A9684600F036FD30B12046E3
:104CE000FFF75BFF00F09FFA0020D5E700F027FEFA
:104CF000A06BE16B884201D1012500E0002500F0A6
:104D000026FE75B104F11000059900F0C4FC2046A0
:104D1000FFF743FF00F087FA0028A5D100F009FE55
:104D2000A2E72046FFF739FF00F07DFA9CE710B5B7
:104D30004C20FBF7A1FA040019D00020606020602D
:104D4000A060E060A0630121C4E90F10401E606410
:104D5000A06404F11000FFF78DFE04F12400FFF7BA
:104D600089FE00231A4619462046FFF775FF2046A4
:104D700010BD10B50C4602220021FFF7EDFE002801
:104D800000D0846310BD2DE9F0411E4615460F4644
:104D90000446FBF7E1F9A06BE16B88421AD2324678
:104DA00039462046FFF72BFFA06C401C04D0A06CB6
:104DB000401CA06401240EE0606A0028FAD004F1CF
:104DC000240000F092FC0028F4D0002DF2D0012045
:104DD0002860EFE70024FBF7C4F92046DBE630B497
:104DE00004680D46002C0CD0026CC1688B18C3609F
:104DF00041688B4200D3C460C168284630BC00F0D3
:104E0000F4BD30BC70472DE9FF47002682B09846BC
:104E10008A460446374600F1240900F090FDA06B55
:104E200040B351462046E568FFF7D9FFB8F1000FBF
:104E30000ED0E560606A28B1484600F056FC08B123
:104E400000F077FD00F083FD012006B0BDE8F0879B
:104E5000A06B401EA063206810B900F09DFC60604C
:104E600020690028EED004F1100000F03EFC01287B
:104E7000E6D0E7E7049808B11EB106E000F067FD50
:104E80001DE0684600F05AFC012600F060FD00F0CD
:104E900036FA00F054FD606C401C00D16764A06CD1
:104EA000401C00D1A76400F052FD04A9684600F040
:104EB0004BFC30B12046FFF770FE00F0B4F9002043
:104EC000C3E700F03CFDA06B30B1002500F03FFDD2
:104ED000CDB1206810B108E00125F7E700F02FFD03
:104EE000606800F05CFC00F032FD4846049900F078
:104EF000D2FB2046FFF751FE00F095F900288CD137
:104F000000F017FD89E72046FFF747FE00F08BF918
:104F100083E770B515460E460446FBF71DF9A06BF6
:104F2000E0B131462046FFF75AFFA06B401EA06358
:104F3000606C401C04D0606C401C606401240EE076
:104F400020690028FAD004F1100000F0CEFB002800
:104F5000F4D0002DF2D001202860EFE70024FBF709
:104F600000F9204670BD10B5044600F0E8FCA46BC3
:104F700000F0EDFC204610BD806B704710B5044674
:104F80000068FBF79BF92046BDE81040FBF796B997
:104F9000806B08B10020704701207047816BC06BA7
:104FA000814201D101207047002070472DE9FF5F49
:104FB0009B46DDE90E6815468A464420109FFBF7A4
:104FC0005BF9040009D0A8008146EFB3384620639E
:104FD000D8B3A522494600F01AFD002C6ED06FF020
:104FE000030101EB8501206B3546084420F00707DB
:104FF00051460C2204F13400FBF770F9002084F8CC
:105000003F00032D00D30225E562201D2564FFF734
:105010003CFD04F11800FFF738FDC5F103012461E0
:10502000A16164625A463846009900F057FC20603E
:10503000B8F1000F01D0C8F8004000F080FCF74F35
:10504000B868401CB86001E007E009E03868DFF8A4
:10505000D08350B1B86980B336E0FBF70DF9B6E7FD
:105060002046FBF72BF90024B7E73C60B86801281D
:105070002AD1002505EB850108EB8100FFF7FAFC3A
:105080006D1C032DF6D3E6483C30FFF7F3FCE448F3
:105090005030FFF7EFFCE2486430FFF7EBFCE048EC
:1050A0007830FFF7E7FCDE488C30FFF7E3FCDC48A4
:1050B0003C3078631430B86306E000E027E03868DD
:1050C000C06AB04200D83C60E06A3969884200D9C1
:1050D0003861F96A491CF96201217A6981401143FA
:1050E000796100EB800108EB8100211DFFF7D0FC06
:1050F000012400F02CFCB86928B13868C06AB042BD
:1051000001D200F016FC04B02046BDE8F09F4FF03D
:10511000FF34F8E770B5054600F011FCBF4E30686B
:10512000854201D100250CE05DB12C46201DFFF722
:10513000D5FCE06ABA4A00EB800152F8211011B1A7
:1051400006E03468F2E701218140706988437061AC
:10515000A06A18B104F11800FFF7C0FCB048211D87
:105160007830FFF795FC7068401C7060F06A401C56
:10517000F06200F0ECFBB069002805D0002D03D1EF
:10518000BDE8704000F0D5BB70BD2DE9F041A34DE6
:10519000E86920B1286A401C2862BDE8F081E8680F
:1051A000401CE860E8684FF0FF3770B9686BA96B86
:1051B0006963A863A86A401CA862686B0068B8B1FC
:1051C000686BC068C06840682863E868296B8842DB
:1051D000E3D3DFF84C820126686B006850B1686B3E
:1051E000C068C468E9686068814205D22863D4E772
:1051F0002F63EAE72F63D0E7201DFFF76FFCA06A5B
:1052000018B104F11800FFF769FCE06A6A6906FA50
:1052100000F11143696100EB800108EB8100211D61
:10522000FFF736FCD8E72DE9F047002700F087FBB1
:105230007A4DE869401EE861E86978BBA86868B300
:10524000DFF8DC81002608F164084FF00109DFF87F
:10525000D0A11BE0C068C46804F11800FFF73EFC51
:10526000201DFFF73BFCE06A6A6909FA00F111436F
:10527000696100EB80010AEB8100211DFFF708FC4A
:10528000E06A2968C96A884200D30126D8F800106C
:1052900040460029DED1286A30B909E012E0FFF764
:1052A00074FF286A401E2862286A0028F7D104E0AB
:1052B000012E02D0686A012804D10020012768620B
:1052C00000F037FB00F043FB3846BDE8F08770B5CF
:1052D000524D044628684460E8682968844201F118
:1052E000040104D2A86BBDE87040FFF7DFBB686B18
:1052F000FFF7DCFB286B844200D22C6370BD47486B
:10530000C169491CC161704770B50C460346002253
:10531000FFF7F5FF414D1868E9680444884202D957
:10532000A04202D805E0A04202D8E868844200D931
:1053300001221C60B2B12868001DFFF7CFFB28686E
:105340003749C06A00EB800051F8200038B928685E
:1053500090F82C10012088406969814369612046DA
:10536000FFF7B5FFFFF75FFF002803D1BDE87040EE
:1053700000F0DFBA70BD70B502001FD0FFF7BFFFAD
:10538000264CE06885182068001DFFF7A7FB206801
:10539000C16A01EB8100224951F8200038B9206828
:1053A00090F82C1001208840616981436161284692
:1053B000FFF78DFFFFF737FF002803D1BDE87040EE
:1053C00000F0B7BA70BD10B5044600F0B8FA0CB9D9
:1053D00012480468E46A00F0BAFA204610BD2DE9CC
:1053E000F0470D4606464FF00008032900D302257A
:1053F00000F0A5FADFF82490D9F80000864201D128
:10540000002608E03EB13446276CAF423ED0BD4294
:1054100008D946B909E0D9F80040F5E7780100104D
:10542000640B00100EB94FF00108E16A8F4200D101
:10543000E562C5F103002564A061FF4E07EB870517
:10544000606906EB850188421BD1201DFFF746FBF2
:1054500056F82500012130B9D9F8143001FA07F2C5
:105460009343C9F81430E06AD9F8143081401943E5
:10547000C9F8141000EB800006EB8000211DFFF737
:1054800007FBB8F1010F01D100F053FABDE8F04776
:1054900000F05DBAE94AD06910B10120506270474E
:1054A0005069E549B0FA80F0C0F11F0000EB8000C0
:1054B00001EB80004168496800F1080341609942AE
:1054C00001D149684160C8681060704770B50546F1
:1054D00000F035FAD94E3068854201D100250CE044
:1054E0005DB12C46201DFFF7F9FAE06AD24A00EBC5
:1054F000800152F8211011B106E03468F2E7012171
:105500008140706988437061A06A18B104F1180085
:10551000FFF7E4FAC848211D8C30FFF7B9FA00F014
:1055200016FA002D0DD1B06918B1BDE8704000F039
:1055300000BAC1488C300068B168884202D10020AE
:10554000306070BDBDE87040A4E7BB4B42690021EC
:105550008C339A4206D1806AA3F12802904201D08E
:1055600000B901210846704770B5040026D0B34D3C
:105570002868844222D000F0E2F92046FFF7E5FFD8
:10558000012817D1201DFFF7A9FAE06A01216A69F5
:10559000814011436961A84900EB800001EB800064
:1055A000211DFFF775FAE06A2968C96A884201D3AC
:1055B00000F0BFF9BDE8704000F0C9B970BD70B52A
:1055C00004460025FAF7C8FD2046FFF7BEFF012874
:1055D00020D19A4EF06920B1974804F11801643047
:1055E00016E0E06A3168C96A884201D3012500E00B
:1055F0000025201DFFF772FAE06A012172698140DF
:10560000114371618C4900EB800001EB8000211D8A
:10561000FFF73EFAFAF7A5FD284670BD00F030F915
:10562000FBF72AFDFAE71FB50024009401940294C9
:105630002346C82282A184480394FFF7B7FC0128BF
:1056400009D1FAF789FD7D4801218161C460BDE877
:105650001F4000F051B91FBD10B5FAF77DFD774925
:1056600000208861BDE8104000F062B910B500F07C
:1056700066F97248C46800F06AF9204610BD10B59A
:10568000FAF76AFD6D48C468FAF76BFD204610BD55
:105690006A488068704770B5684C0D4621681831BB
:1056A000FFF704FA2068001DFFF718FA2068624926
:1056B000C06A00EB800051F8200038B9206890F8EB
:1056C0002C1001208840616981436161681C04D00D
:1056D000E0682844BDE87040F9E52168BDE8704005
:1056E0005548091D8C30FFF7D3B970B5C068C46840
:1056F00004F118000646FFF7F1F9504DE86958B17A
:105700004D4831466430FFF7C3F9E06A2968C96A39
:10571000884211D3012070BD201DFFF7DFF9E06A38
:1057200001216A69814011436961434900EB8000AE
:1057300001EB8000211DE6E7002070BD3F498A6A29
:105740000260C9684160704770B50D46044600F0BC
:10575000F6F82868411C14D0384922688B6A9A42AE
:1057600003D06268CB689A420DD96268CB689B1AF5
:10577000834208D2C968891A401A28602046FFF778
:10578000DDFF002400E0012400F0E1F8204670BDB8
:105790002A4901204862704728480068704770B560
:1057A000040035D0254DE06A2968C96A88422FD2A5
:1057B0002868214EC06AC0F10300A061E06A6169F7
:1057C00000EB800006EB800081421ED1201DFFF718
:1057D00085F9E06A00EB800156F82120012122B909
:1057E0006A6901FA00F082436A612868C06AE0626F
:1057F0006A6981401143696100EB800006EB80001B
:10580000211DBDE87040FFF743B92868C06AE06217
:1058100070BD70B5040032D0216CE06A88422ED091
:10582000201DFFF75BF9E06A034A00EB800152F8A4
:1058300021500123014909E0640B00107801001098
:1058400049444C45000000001D56000025B903FAEC
:1058500000F54869A8434861206CE062C0F103008C
:10586000A061E06A4D6983402B434B61211DBDE877
:10587000704000EB800002EB8000FFF709B970BDBB
:1058800070B5144D6868002822D0FFF738FD124E1D
:105890003068D8B10024FFF7C6FC002C18D100F006
:1058A0004EF8F068C468201DFFF718F9A868401E7C
:1058B000A8606868401E686000F049F8206BFAF73D
:1058C000FDFC2046BDE87040FAF7F8BC0124E2E791
:1058D00070BD000078010010DC0B001010B5031F34
:1058E0004FF080741C601B1F1960191F00230B6090
:1058F000143940380A6010BD204810B5016841F4E1
:1059000078010160016841F0784101601C48642120
:105910000068B0FBF1F14FF0E020491E4161072122
:105920000161184900200860FAF7EEFB002010BD65
:10593000704712494FF080501C390860704710B50D
:10594000FAF70AFC0F480168491C016010BD0D49B7
:105950000868401E086001D1FAF703BC7047074988
:1059600010B51C394FF080500860FAF7F5FBFFF7CF
:105970000CFCBDE81040FAF7F4BB000020ED00E09D
:1059800000000010B40100102DE9F05F0546002072
:1059900092469B4688460646814640241BE02846A0
:1059A00041464746224600F053F853465A46C01A2D
:1059B000914110D311461846224600F03AF82D1AAC
:1059C00067EB01084F4622460120002100F031F824
:1059D00017EB00094E41201EA4F10104DFDC48460C
:1059E00031462A464346BDE8F09F40EA01039B0743
:1059F00003D009E008C9121F08C0042AFAD203E044
:105A000011F8013B00F8013B521EF9D27047D2B2A7
:105A100001E000F8012B491EFBD270470022F6E797
:105A200010B513460A4604461946FFF7F0FF204614
:105A300010BD202A04DB203A00FA02F10020704752
:105A40009140C2F1200320FA03F3194390407047BC
:105A5000202A04DB203A21FA02F00021704721FAC3
:105A600002F3D040C2F1200291400843194670472A
:105A7000064C074D06E0E06840F0010394E807009B
:105A800098471034AC42F6D3FAF724FB405B000091
:105A9000605B000070B501EB020410F8015B15F0CB
:105AA000070301D110F8013B2A1106D110F8012B90
:105AB00003E010F8016B01F8016B5B1EF9D12B07B5
:105AC00005D40023521E0FD401F8013BFAE710F869
:105AD000013B02F10202A1EB030303E013F8015BB7
